:100000000C94E90C0C94060D0C94060D0C94060D42
:100010000C94060D0C94060D0C94060D0C94060D14
:100020000C94060D0C94060D0C94060D0C94060D04
:100030000C94790E0C94060D0C94060D0C94FB0E8A
:100040000C94E00D0C94060D0C94EA620C9464631D
:100050000C94060D0C94060D0C94060D0C94060DD4
:100060000C94060D0C94FF0D0C94060D0C94060DCB
:100070000C94060D0C94060D0C94060D0C94060DB4
:100080000C94060D0C94060D0C94060D8040000097
:1000900000000000000000000000000000F0080464
:1000A0000484444444444444444444444444444410
:1000B00044C4040488700000000000000000000038
:1000C0000000000000000000000000000000000030
:1000D0000000000000000000000000000000000020
:1000E0000000000000000000000000000000000010
:1000F0000000000000000000000000000000000000
:1001000000000000000000000000000000000000EF
:1001100000000000000080808080808080BF8080A0
:1001200080BF808080800000304848484848484868
:100130004888090908F00000000101017F01010160
:100140000100007F49494949414140007F4040400A
:10015000404040007F49494949414140007F0106F4
:100160000C10100C06017F00007F494949494141AC
:10017000400101017F0101010100007F0909090916
:1001800019294E000103060C780C0603010000003B
:1001900000F8FEFFFFFF0F0707070707073747872E
:1001A00087879797075FDFDFDFDED880101010109A
:1001B000100F0080403F80C0E0E0E06020000000C1
:1001C000000000000000000000000000000000002F
:1001D000000000000000000000000060D09090903F
:1001E0009090000000F09090909010100000F0901F
:1001F0009090909090E00000F0000000F0909090BF
:100200009010100060D0909090909000000000003E
:10021000000107070F0F0F0E1E1E1E1E1E1E0E0EC4
:100220000E0E0E8ECEEEFCF973270F1F3F7EFCF9EB
:10023000F1F1F9FC3E1F0F07030100000000000070
:1002400000000000000000000000000000000000AE
:10025000000000000000000000000002060404048A
:100260000404030000070404040404040400070059
:10027000000000010204000007000000070404045D
:10028000040404040206040404040403000000003F
:100290000000000000040C1C1C1C1C1C1E1E1E0E5A
:1002A0000E0F070703030180C0E0F0F87C3E1F0F2C
:1002B00007070F1F3F7EFCF8F0E0C0800000000041
:1002C00000000000000000007E4A4A4A4A4A7C00C2
:1002D00002060C7008040202000000001C224141CA
:1002E0004949493A1800007E12121212324C00009D
:1002F0003E40404040403E00020C186060300C021E
:10030000007E00007E020C1830407E0000000000DD
:1003100000E0101010E00000C0804080000080402D
:1003200040800000CC8E4F8F0F070301000000605B
:10033000909010000000804143870F0FCF0E0CC03B
:100340000000C08040C0000080404040000080406D
:1003500040800000000000000000000000000000DD
:10036000000000000000000000000000000000008D
:10037000000000000000000000000000000000007D
:10038000000000000000000000000000000000006D
:1003900000070808080700003F04080700000709D5
:1003A000C94940408F00000F000000000000000815
:1003B0000808090600000708080700000708040FDE
:1003C00000000F00000000400708080800000709AF
:1003D0000909000000C8000008C000080000000073
:1003E000000000000000000000000000000000000D
:1003F0000000C0000000C00000000000000000007D
:1004000000000000000000C000000000000000002C
:10041000000000000000200000200000200000007C
:100420003F0404040300001E21211E0007380E0EA5
:100430003807001E25252600003F020103000000AA
:10044000000000000001013F00003F02013E0000EB
:10045000000000000000033C030000001E21211EDC
:1004600000001F20103F003F0201030000000000B9
:1004700000003F0202023F00001925151E20003F28
:1004800002013E001E21123F0000222529110052C8
:10049000554420454C45205448522041494C205257
:1004A00055442054485220454C452041494C204158
:1004B000494C20454C452054485220525544204137
:1004C000494C2054485220454C4520525544200068
:1004D00003010200040506070000000000000108F7
:1004E0001E640101081E6401010F32960A0A1E32C1
:1004F000966D656E75537461636B206F7665726679
:100500006C6F77006D656E75537461636B20756EEB
:10051000646572666C6F7700707265737320616ECC
:1005200079204B657900414C455254004D45535359
:1005300041474500506C6561736520726573657451
:10054000207468656D005377697463686573206E05
:100550006F74206F666600414C45525400416C61D7
:10056000726D732044697361626C65640054485213
:10057000206E6F742069646C6500454550524F4D84
:10058000206C6F77206D656D004F46464142535297
:100590005573525525454C73454C25544873544862
:1005A00025414C73414C255031205031255032208B
:1005B0005032255033205033250054485252554470
:1005C000454C4549443049443149443241494C47FE
:1005D000454154524E535731535732535733535763
:1005E00034535735535736004F4646004F4E200080
:1005F0002D2D2D002D2D2D20434831204348322014
:10060000434833204348342043483520434836206C
:100610004348372043483820434839204348313045
:100620004348313143483132434831334348313410
:1006300043483135434831364348313743483138F0
:1006400043483139434832304348323143483232EB
:1006500043483233434832344348323543483236D4
:1006600043483237434832384348323943483330BD
:10067000005031202050322020503320204D41584E
:100680002046554C4C50504D3150504D3250504DED
:100690003350504D3450504D3550504D3650504DD4
:1006A0003750504D38434831204348322043483377
:1006B00020434834204348352043483620434837B8
:1006C000204348382043483920434831304348319B
:1006D0003143483132434831334348313443483160
:1006E0003543483136434831374348313843483140
:1006F000394348323043483231434832324348323A
:100700003343483234434832354348323643483223
:1007100037434832384348323943483330002D2D6F
:100720002D2D00564552533A2056312E322D6772E8
:100730007576696E00444154453A2033302E303688
:100740002E323031310054494D453A2031323A3160
:10075000323A3531002053564E3A207472756E6B22
:100760002D723633300020424C443A20333132006F
:1007700012081200081C0808081C080000082200C3
:10078000490022080000000000227F22000000082B
:100790002200490022080000082200490022080027
:1007A0000000227F220000000000082200490022F1
:1007B000080000081C0808081C0800E73FD230FDAC
:1007C000346C4EAC4710412C377C500C39273072BA
:1007D0003DA93D383EA93E70756C73652074616219
:1007E000206F766572666C6F77005448525255449C
:1007F000454C4549443049443149443241494C47CC
:10080000454154524E535731535732535733535730
:100810003453573553573600544852525544454C7B
:100820004549443049443149443241494C474541A6
:1008300054524E53573153573253573353573453FF
:1008400057355357360020202054546D004578709A
:10085000457846466E654D656443727300544F5447
:10086000005354250053544B0054535700544D45E6
:100870000053544154005B4D454E555D20746F202C
:100880007265736574007431306D732020202020F0
:100890002020202020757300746D61696E206D61C9
:1008A000782020202020206D7300746D7231204A42
:1008B000697474657220202020757300746D723124
:1008C0004C6174206D696E20202020757300746D5A
:1008D00072314C6174206D61782020202075730086
:1008E0005354415432004D6F6465004F46464F4E9D
:1008F0002000416C61726D205761726E696E6700F5
:100900004F46464F4E20004D656D6F7279205761FE
:10091000726E696E67004F46464F4E2000537769EE
:10092000746368205761726E696E67004F46464F68
:100930004E20005468726F74746C65205761726E3B
:10094000696E67004F46464F4E200053706C6173CE
:10095000682073637265656E004F4646004C696798
:100960006874206F6666206166746572004C696702
:10097000687420737769746368004F46464F4E2051
:1009800000466C617368206F6E2062656570004F71
:1009900046464F4E20004265657020636F756E7449
:1009A000646F776E004F46464F4E20004D696E755E
:1009B00074652062656570004F46464F4E200054B6
:1009C00068726F74746C6520726576657273650009
:1009D00053494E474F534D5046494C540046696C5D
:1009E0007465722041444300496E6163746976699D
:1009F000747920616C61726D004261747465727902
:100A0000207761726E696E6700436F6E74726173F6
:100A1000740051756965744E6F4B65794E6F726DD8
:100A2000204C6F6E6720784C6F6E67004265657072
:100A3000657200524144494F205345545550004D72
:100A4000756C7469706C6965720043616C0050501C
:100A50004D494E00010456455253494F4E005472C1
:100A6000696D2D202B00204D656E752045786974C9
:100A700020446F776E20202055705269676874207B
:100A80004C6566740044494147004131413241336D
:100A90004134413541364137413800414E41003CF7
:100AA000202020203E005365744D696420536574F6
:100AB0005370616E446F6E652020200043414C49A5
:100AC00042524154494F4E004475706C69636174E1
:100AD000696E67206D6F64656C00312F3800667237
:100AE0006565004D4F44454C53454C0044454C45CD
:100AF0005445204D4F44454C2020205B4D454E55DC
:100B00005D00504F534E454700536869667420534B
:100B1000656C0075536563003443482036434820B4
:100B20003843482031304348313243483134434818
:100B3000313643480050504D20202053494C565FD9
:100B40004153494C565F4253494C565F43545241BE
:100B50004330390050726F746F0052455441313246
:100B600033004265657020436E74005472696D20D5
:100B7000537700457870202020457846696E654699
:100B8000696E6520204D656469756D436F61727390
:100B900065005472696D20496E63004F46464F4EA2
:100BA0002000542D4578706F004F46464F4E200070
:100BB000542D5472696D00436F756E7420446F77C5
:100BC0006E436F756E7420557020200054696D65FA
:100BD000722000547269676765720054696D6572AE
:100BE000004E616D650053455455502000010A02C6
:100BF000010101010101070301015B4D454E555DF6
:100C000020205B455849545D005945532020202041
:100C1000204E4F0044454C455445204D4F44454CD3
:100C200000204142434445464748494A4B4C4D4EBB
:100C30004F505152535455565758595A30313233F8
:100C40003435363738395F2D2E00657870202025F1
:100C5000202073773120737732004558504F2F444E
:100C60005200050444522048696768004452204CF1
:100C70006F77004452204D6964004472537732000C
:100C8000447253773100576569676874004578701E
:100C90006F004558504F2F445220002D2D2D783E87
:100CA00030783C307C787C663E30663C307C667CBC
:100CB0006331206332206333206334206335206343
:100CC0003620633720633820633920633130633145
:100CD00031633132633133633134633135633136FB
:100CE000002B2A52007774207372632020737720C0
:100CF000637276004D495845520044454C45544571
:100D0000204D4958205B4D454E555D00536C6F7723
:100D10002020557000536C6F772020446F776E0051
:100D200044656C61792055700044656C617920449C
:100D30006F776E0041646420202020204D756C7414
:100D400069706C795265706C61636520004D756CDB
:100D5000747078004F4646005761726E696E670086
:100D6000537769746368002D2D2D783E30783C30C0
:100D70007C787C663E30663C307C667C63312063E8
:100D80003220633320633420633520633620633799
:100D9000206338206339206331306331316331326D
:100DA00063313363313463313563313600437572F7
:100DB000766573004F4E204F4646005472696D00B1
:100DC0004F66667365740057656967687400536F92
:100DD000757263650045444954204D4958200049C7
:100DE0004E53455254204D495820002D2D2D2D2075
:100DF0002020763E6F66732020763C6F667320203D
:100E00007C767C3E6F66737C767C3C6F6673414E6D
:100E100044202020204F522020202020584F5220B4
:100E200020202076313D3D7632207631213D7632CC
:100E30002076313E7632202076313C763220207684
:100E4000313E3D76322076313C3D7632200046758B
:100E50006E6374696F6E2056312020563200435302
:100E60005749544348000303434C454152204D49E0
:100E7000584553205B4D454E555D00205245544129
:100E80000020524554410020524554410020524513
:100E90005441004368616E6E656C204F72646572E8
:100EA0000054454D504C4154455300434F50592038
:100EB0005452494D205B4D454E555D002D2D2D4919
:100EC0004E560073756254206D696E20206D6178F6
:100ED00020696E76004C494D495453000104435635
:100EE0000043555256450050524553455400454421
:100EF00049542D3E00435552564520000A01010138
:100F00000101010101010101454550524F4D206F82
:100F1000766572666C6F7700454550524F4D206F75
:100F2000766572666C6F7700454550524F4D206F65
:100F3000766572666C6F770067656E777269746547
:100F4000206572726F7200454550524F4D20466FBA
:100F5000726D617474696E6700426164204545700A
:100F6000726F6D2044617461004D4F44454C2020E8
:100F70002020200050085000000000000000006FFA
:100F8000000007000700147F147F14242A7F2A1210
:100F900023130864623649552250000503000000FF
:100FA0001C2241000041221C0014083E08140808BD
:100FB0003E0808005030000008080808080060607B
:100FC00000002010080402003E41413E0000427F24
:100FD0004000625149460041494936001814127FC9
:100FE0000027454539003E49493200017905030093
:100FF00036494936000649291E00003636000000F1
:1010000056360000081422411414141414412214FA
:101010000800020151090606090906007E090909AE
:101020007E7F494949363E414141227F4141221C50
:101030007F494949417F090909013E4149497A7F70
:101040000808087F00417F41002040413F017F08A0
:101050001422417F404040407F020C027F7F040801
:10106000107F3E4141413E7F090909063E41512121
:101070005E7F09192946264949493201017F01014C
:101080003F4040403F1F2040201F3F4030403F63D3
:101090001408146307087008076151494543007F2D
:1010A00041410002040810200041417F0004020178
:1010B00002044040404040000102040020545454C7
:1010C000787F484444383844444420384444487F76
:1010D0003854545418087E0901020C5252523E7F73
:1010E0000804047800447D40002040443D007F1007
:1010F00028440000417F40007C041804787C0804E8
:10110000047838444444387C14141408081414181F
:101110007C7C080404084854545420043F44402074
:101120003C4040207C1C2040201C3C4020403C4453
:10113000281028440C5050503C4464544C4400083F
:1011400036410000007F00000041360800080822F8
:101150001C08081C220808A0608000000000000095
:101160000000000000000000FFFF00000000000081
:101170001F3F00003F1F00003030FFFF3030FFFFF7
:1011800030303078CCCCFFFFCCCC8C0C060F0F86E7
:10119000C0E070381C0C3CFEC7E3F33B1E0C0000A3
:1011A0000000333B1F0F000000000000F0F81C0E91
:1011B00007030000000003070E1CF8F000003030A9
:1011C000E0C0FCFCC0E03030C0C0C0C0FCFCC0C00F
:1011D000C0C000000000000000000000C0C0C0C08F
:1011E000C0C0C0C0C0C0000000000000000000007F
:1011F00000000080C0E070381C0C000000000000FF
:10120000000000000000000038380000000000006E
:10121000000000000000000003033F3F03033F3FC6
:1012200003030C0C0C0C3F3F0C0C07030C0E0703C4
:101230000100183C3C180F1F383133331E1E333366
:1012400000000000000000000000000003070E1C6A
:1012500038300000000030381C0E07030000030384
:1012600001000F0F00010303000000000F0F00003A
:1012700000000000333B1F0F0000000000000000D2
:101280000000000000000000183C3C1800000000B6
:101290000C0E07030100000000000000FCFE070325
:1012A0000307FEFC00000C0EFFFF00000000000022
:1012B0000C0E0783C3E77E3C00000303C3C3C3E7F0
:1012C000FE3C0000C0E070381C0EFFFF00003F3FF6
:1012D00033333373E3C30000FCFEC7C3C3C78E0CB4
:1012E00000000303C3E3733B1F0F00003CFEE7C392
:1012F000C3E7FE3C00003C7EE7C3C3E7FEFC000002
:10130000183C3C18000000000000183C3C1800008D
:1013100000000000C0E0F0381C0E07033030303011
:1013200030303030303003070E1C38F0E0C00000A1
:101330000C0E07030383C3E77E3C00000F1F383009
:1013400030381F0F000030303F3F303000000000C9
:101350003C3E3733313030300000303030303039BF
:101360001F0F00000303030303033F3F00000C1C97
:10137000383030381F0F00000F1F383030391F0F42
:10138000000000003F3F0000000000000F1F393048
:1013900030391F0F0000000030381C0E070300001A
:1013A000060F0F06000000000000333B1F0F000077
:1013B00000000000000103070E1C38300303030384
:1013C00003030303030330381C0E0703010000006E
:1013D000000000003333010000003C7EE7C3C3E798
:1013E0007E3C0000F0F8DCCEC7C7CEDCF8F0FFFF93
:1013F000C3C3C3C3C3E7FE3CFCFE070303030307E9
:101400000E0CFFFF030303070E1CF8F0FFFFC3C31E
:10141000C3C3C3C30303FFFFC3C3C3C3C3C3030324
:10142000FCFE0703C3C3C3C7CECCFFFFC0C0C0C010
:10143000C0C0FFFF00000303FFFF03030000000024
:1014400000000303FFFF0303FFFFC0E0F0381C0EA2
:101450000703FFFF0000000000000000FFFF0E1C5C
:10146000F8F81C0EFFFFFFFF3870E0C08000FFFFA0
:10147000FCFE070303030307FEFC0000000000005E
:10148000000000003F3F0000000000003F3F3F3FE2
:101490003030303030391F0F0F1F38303030303897
:1014A0001C0C3F3F303030381C0E07033F3F3030BC
:1014B0003030303030303F3F00000000000000008E
:1014C0000F1F3830303030383F1F3F3F00000000E2
:1014D00000003F3F000030303F3F303000000C1C28
:1014E000383030381F0F00003F3F000103070E1C4B
:1014F00038303F3F30303030303030303F3F000008
:10150000000000003F3F3F3F0000000103073F3F56
:101510000F1F3830303030381F0FFFFFC3C3C3C335
:10152000C3E77E3CFCFE070303030307FEFCFFFF4B
:10153000C3C3C3C3C3E77E3C3C7EE7C3C3C3C3C7C7
:101540008E0C03030303FFFF03030303FFFF0000ED
:1015500000000000FFFFFFFF000000000000FFFF91
:10156000FFFF000000000000FFFF0F1F38F0E0E069
:10157000F0381F0F3F7FE0C08080C0E07F3F030353
:101580000383C3E3733B1F0F0000FFFF0303030349
:1015900000000C1C3870E0C0800000000000030355
:1015A0000303FFFF000030381C0E07070E1C383005
:1015B000000000000000000000003F3F00000000AD
:1015C000000000000F1F383033371E1C3F333F3FF1
:1015D000000003070E1C38300C1C38303030303916
:1015E0001F0F000000003F3F000000000F1F3830B9
:1015F000303030381F0F03070E1C38381C0E07031D
:101600000F1F38381F1F38381F0F3C3E07030101DA
:1016100003073E3C000000013F3F010000003C3E4C
:10162000373331303030303000003F3F30303030F1
:10163000000000000000000103070E0C0000303025
:1016400030303F3F000000000000000000000000BC
:1016500030303030303030303030000003070E1C76
:10166000383000000000303030303070E0C0FFFF14
:10167000C0E070303070E0C0C0E0703030303030EA
:101680000000C0E070303070E0C0FFFFC0E070309C
:1016900030303070E0C0C0C0FCFEC7C303070E0C82
:1016A000F0F89C0C0C0C0C0CFCFCFFFFC0E0703044
:1016B0003070E0C000003030F3F3000000000000A4
:1016C00000003030F3F30000FFFF0080C0E0703016
:1016D000000000000303FFFF00000000F0F0307086
:1016E000E0E07070E0C0F0F0C0E070303070E0C05A
:1016F000C0E0703030303070E0C00000000000000A
:10170000000000000C1E3F33333333333F3F3F3F75
:101710003030303030381F0F0F1F38303030303815
:101720001C0C0F1F3830303030303F3F0F1F3B3321
:1017300033333333030300003F3F00000000000059
:10174000000133333333333B1F0F3F3F00000000B2
:1017500000003F3F000030303F3F303000000C1CA5
:10176000383030381F0F00003F3F03070F1C383060
:101770000000000030303F3F303000003F3F0000AD
:10178000030300003F3F3F3F0000000000003F3FD9
:101790000F1F3830303030381F0FF0F0303030301D
:1017A00030F0E0C0C0E0F0303030E0C0F0F0F0F0F9
:1017B000C0E070303070E0C0C0E0F0303030303029
:1017C00000003030FFFF303000000000F0F000007B
:1017D00000000000F0F0F0F0000000000000F0F069
:1017E000F0F0000000000000F0F03070E0C08080F9
:1017F000C0E07030F0F0800000000000F0F0303009
:10180000303030B0F0F070300000C0E03C3E0703F4
:10181000000000000000FFFF0000000000000307C0
:101820003E3CE0C00000C0C0C0C00C1CF8F0E0C0EE
:10183000C0E0F0F81C0CC0C0C0C03F3F030303036E
:101840000303010000010303030303033F3F3F3F82
:101850000000000000000000303133333333333FE9
:101860001E0C00000F1F383030381C0C0F1F383092
:1018700030381C0C3F3F03070E1C38381C0E070382
:101880000F1F38381C1C38381F0F30381C0F070743
:101890000F1C3830000133333333333B1F0F3038E4
:1018A0003C3E373331303030000000010F1F3830FC
:1018B0000000000000003F3F000000000000303842
:1018C0001F0F01000000000000000C0E07030100C4
:1018D000000103070E0C00000000408008042010E7
:1018E00002011867DE6530644C543C47543E002DBD
:1018F0002D2D59656C4F726752656400413261410C
:10190000326241316141316200536C6F74204C6529
:1019100076656C203E203C2056616C756500465211
:10192000534B5920414C41524D530001034E6F20FF
:10193000596573004E6F204461746120416C61727F
:101940006D0056426172204D617820566F6C747341
:101950000056426172204D696E20566F6C747300A0
:10196000566F6C74732043616C69627261746500B8
:101970005278204D617820566F6C7473002D2D4184
:1019800031413200527820566F6C74732043686185
:101990006E6E656C004652534B5920534554544962
:1019A0004E475300527820426174743A00527820B6
:1019B000525353493A20202064420041323A0041B8
:1019C000313A0044415441004E4F004652534B5966
:1019D000000011241FBECFEFD0E1DEBFCDBF12E06B
:1019E000A0E0B1E0E2E8F2ED02C005900D92A6376A
:1019F000B107D9F710E1A6E7B2E001C01D92A53109
:101A0000B107E1F70E94CB150C943F690C940000DC
:101A1000883048F4E82FF0E0EE0FFF1FEF54FA4F44
:101A2000208131811FC08A3018F420E034E01AC0D0
:101A3000A82FB0E0813180F4AA0FBB1FFD01EA5648
:101A4000FD4FA25CBA4F2D913C9180819181281B62
:101A5000390B220F331F06C0AA0FBB1FA356BA4F64
:101A60002D913C91C9010895E0914005F0E0EE0F01
:101A7000FF1FE85CFA4F8081918108959C01E091FD
:101A80004005F0E0EE0FFF1FEA5CFA4F9183808380
:101A90008FEBF9010995809142058093410582E31E
:101AA000809300010895E82FF0E0E053FB4FE491AC
:101AB000F0E0EE0FFF1FE659FA4F8FB7F894019050
:101AC000F081E02D87FF01C07894CF010895AAE648
:101AD000B5E0EAE7F5E060E0862F806487B9369AE2
:101AE000349BFECF349A208931898D919C91119736
:101AF00096958795820F931F8E7F8D939D9340813E
:101B00005181240F351F36952795318B208B84B159
:101B100095B1840F951F96958795819391936F5FEB
:101B20006830D1F60895DF93CF93CDB7DEB76097D5
:101B30000FB6F894DEBF0FBECDBFFE01319680E137
:101B4000DF011D928A95E9F7AAE6B5E050E015C0DD
:101B500067B9369A349BFECF349A84B195B1280F79
:101B6000391F4F5F4430A1F7219331933695279564
:101B70002D933D935F5F583031F02081318140E0FB
:101B8000652F6064E5CF60960FB6F894DEBF0FBE98
:101B9000CDBFCF91DF910895EAE6F5E020E0822FF6
:101BA000806487B9369A349BFECF349A84B195B15C
:101BB000880F991F819391932F5F283081F70895A3
:101BC0001F920F920FB60F9211248F93809162058E
:101BD0008F5F809362058F910F900FBE0F901F90C3
:101BE00018954091620522B7809162054817C9F7A0
:101BF000942F80E030E0282B392BC9010895789488
:101C00001F920F920FB60F9211242F933F934F9371
:101C10005F936F937F938F939F93AF93BF93EF9354
:101C2000FF932091800030918100F89480917D0095
:101C30008F7D80937D0078948091660590916705F3
:101C4000A901481B590B569547953093670520937A
:101C50006605CA01815A9F408F5D9E4220F481E053
:101C6000809360052EC020916005822F81508830BE
:101C700040F5CA01815293408757954000F5E22F05
:101C8000F0E0EE0FFF1FE25BFA4F4C5D5540809194
:101C9000C002992787FD90950A96BC01469FC00116
:101CA000479F900D569F900D11246AE070E00E94AE
:101CB000AD68718360832F5F2093600502C010922E
:101CC0006005F89480917D00806280937D00789417
:101CD000FF91EF91BF91AF919F918F917F916F9104
:101CE0005F914F913F912F910F900FBE0F901F90DA
:101CF00018951F920F920FB60F9211242F933F93B6
:101D00004F935F936F937F938F939F93AF93BF9303
:101D1000EF93FF9390E08CB58A3008F064C09F5F2A
:101D2000923309F460C0F7CFC09A1092AA0504C09C
:101D3000C09881E08093AA058091B2079091B30783
:101D40009C012417350708F49A013093B3072093B8
:101D5000B20780910A0190910B019C014217530731
:101D600008F49A0130930B0120930A01A091080115
:101D7000B0910901FD01819191919BBD8ABDF093C4
:101D80000901E093080112968D919C911397892B7C
:101D9000A1F488EB97E0909309018093080180916A
:101DA000D8028093AA0587B78F7E87BF78940E9458
:101DB000461BF89487B7806187BF80916105816079
:101DC00080936105FF91EF91BF91AF919F918F91AA
:101DD0007F916F915F914F913F912F910F900FBE27
:101DE0000F901F9018954CB55DB58091AA0588237A
:101DF00009F09ACF9DCF78941F920F920FB60F9251
:101E000011242F933F934F935F936F937F938F93FF
:101E10009F93AF93BF93CF93DF93EF93FF93F89488
:101E200087B78D7F87BF789481B78E5F81BF8091A0
:101E30003405882359F08091000190916905890F3C
:101E40008093690587FF02C01B9A01C01B9880918F
:101E500007018150809307018F5F09F05EC08DE418
:101E600080930701CCB5DDB590914105992369F0C8
:101E700080916405882329F49093640581E0809320
:101E8000650591509093410521C03091630533233E
:101E9000B9F020916405222399F090E080916505C6
:101EA000882309F491E090936505992309F428E0CB
:101EB00020934105992351F031503093630506C0BA
:101EC00010926405109265051092350580916505A4
:101ED000882391F080913505882311F490E004C0A7
:101EE0009091680581E0982790936805992321F4E3
:101EF00081E08093340502C0109234050E94C25CD8
:101F0000809161058260809361058CB59DB58C1BC5
:101F10009D0B9093B7078093B607F89487B78260BC
:101F200087BF7894FF91EF91DF91CF91BF91AF91EF
:101F30009F918F917F916F915F914F913F912F91E1
:101F40000F900FBE0F901F901895AF92BF92CF9237
:101F5000DF92EF92FF920F931F93CF93DF93D82ED0
:101F6000B42E35E03B1508F419C1DD2009F419C180
:101F700080E1D81609F414C190EFD91609F40EC106
:101F80002D2D332727FD3095C90137FF04C0882741
:101F90009927821B930B8A308CF41D144CF08DE032
:101FA00090E0821B930B0E94195C61E06827F9C0E6
:101FB000C9010D960E94195C682FF3C0E82EFF241A
:101FC000E7FCF09486EF9FEFE80EF91ED701AA0F09
:101FD000BB1FAE0DBF1DAE53BD4FA85ABD4F8C9158
:101FE000A855B240882309F4D9C0FD01EA5AFD4F33
:101FF000C080ED01C95ADD4FA880853008F4DDC0EE
:10200000883028F400E010E020E030E00AC08C2D99
:1020100081500E94080D8C01888181500E94080D1A
:102020009C01F701EE0FFF1FEE0DFF1DE65EFA4F5C
:10203000E081E73009F483C0E83088F4E33069F1E7
:10204000E43030F4E13009F1E23009F0A7C021C0FA
:10205000E53009F456C0E63008F066C038C0EA3012
:1020600009F488C0EB3038F4E83009F479C0E9307D
:1020700009F094C07AC0EC3009F486C0EC3008F462
:102080007EC0ED3009F08AC084C01D140CF472C00B
:1020900080C01D140CF473C077C01D1464F460E09C
:1020A000C80117FF03C0909581959F4F28173907E6
:1020B0000CF077C075C060E0C80117FF03C09095B1
:1020C00081959F4F281739070CF46BC069C01D1408
:1020D00064F460E0C80117FF03C0909581959F4F9D
:1020E000821793070CF05DC05BC060E0C80117FF6A
:1020F00003C0909581959F4F821793070CF451C0B0
:102100004FC01B2D1F5F8C2D60E0412F0E94A50F3B
:10211000882309F443C08A2D60E0412F0E94A50F57
:10212000682F8823F1F13CC0B3948C2D60E04B2DD7
:102130000E94A50F8823A1F5DA2C60E012CF1B2D99
:102140001F5F8C2D60E0412F0E94A50F082F8A2D64
:1021500060E0412F0E94A50F60E0081709F521C03B
:1021600060E002171307E9F41BC060E002171307D1
:10217000B9F417C060E0201731079CF411C060E08B
:102180000217130774F40CC060E0021713074CF039
:1021900007C060E02017310724F002C060E001C0F2
:1021A00061E0862FDF91CF911F910F91FF90EF900B
:1021B000DF90CF90BF90AF9008958C2D81500E94FA
:1021C000080D8C012881822F27FD8D5F85958595CF
:1021D000E82FFF27E7FDF0953AE02302C001112424
:1021E000E80FF91F822F27FD815C86FB880F880B83
:1021F00080F9992787FD90959F01281B390B11CFF6
:102200004F925F926F927F928F929F92AF92BF9206
:10221000CF92DF92EF92FF920F931F93CF93DF93B2
:10222000F82E5B012A013901C02E802E9924C401A9
:102230008470907004FF07C0892B39F4FB01808102
:10224000082F10E00CC0892B21F0F50100811181CD
:1022500006C0FB018081082F112707FD109583FC24
:1022600005C054E0D52E45E0E42E04C033E0D32E63
:1022700022E0E22EF4FE07C0FFE0FF2280E6F82A0B
:102280008E2DED2CD82E8D2D8066F81671F08D2DAB
:102290008064F81651F09091E005992389F0E3E607
:1022A000FE1619F0F3E4FF1659F4E8012196809127
:1022B00042058093410587E3809300018E2D1CC069
:1022C0008E2D8066F81671F08E2D8064F81651F010
:1022D000992309F47DC082E6F81621F0E2E4FE16A7
:1022E00009F076C0E801219780914205809341056D
:1022F0008DE2809300018D2D90E00E94195C88236F
:1023000051F0CC27DD27C01BD10B8E2D0E94A05C85
:102310008D2D0E94A05C80914A0590914B05C81BB1
:10232000D90B6C167D065CF48F2D0E94A05C809109
:1023300044058093410587E380930001E301C415C0
:10234000D5055CF48F2D0E94A05C8091440580939C
:1023500041058DE280930001E201C017D10721F110
:10236000209791F48F2D0E94915C17FF06C08091F9
:1023700044058093410587E305C08091440580931F
:1023800041058DE28093000182FE04C0F501D183F6
:10239000C08302C0F501C0838C2D83720E949A51C4
:1023A00081E08093470503C01092470580E0DF91EC
:1023B000CF911F910F91FF90EF90DF90CF90BF9042
:1023C000AF909F908F907F906F905F904F90089507
:1023D000E801A1CF0F93DF93CF930F92CDB7DEB774
:1023E0006983552747FD5095332727FD3095BE015A
:1023F0006F5F7F4F09E00E94001189810F90CF919C
:10240000DF910F9108950F93DF93CF930F92CDB784
:10241000DEB76983552747FD5095332727FD309553
:10242000BE016F5F7F4F01E00E94001189810F9014
:10243000CF91DF910F9108950F93DF93CF930F9278
:10244000CDB7DEB76983552747FD5095332727FD64
:102450003095BE016F5F7F4F0AE00E9400118981B5
:102460000F90CF91DF910F9108950F93DF93CF934A
:102470000F92CDB7DEB76983552747FD50953327B7
:1024800027FD3095BE016F5F7F4F02E00E94001173
:1024900089810F90CF91DF910F910895EF92FF9274
:1024A0001F93CF93DF93182F682F6F706650209182
:1024B000D40222306CF0332727FD30952150304074
:1024C00081E090E002C0880F991F2A95E2F7282F3B
:1024D000683008F0A3C0962F9595222311F0422F63
:1024E00015C0E92FF0E0EC55FB4F8081482F5527B0
:1024F00047FD509557FF03C0509541955F4F242FDE
:1025000047FD2D5F422F459545954F5FA92FB0E0C0
:102510002091BA0230E02170307082E090E0821B9E
:10252000930B8A179B0739F48091D3028F7019F0AF
:1025300044E051E001C050E0242F332727FD3095BF
:10254000FD01EE53FD4F60FF0AC0EE51FE4F80814A
:10255000C82FDD27C7FDD095C20FD31F09C0EE518C
:10256000FE4F8081C82FDD27C7FDD095C21BD30B3E
:10257000209779F07E019F2D9095991F9927991F9B
:1025800020E0FD01EC55FB4F808187FF21E0921791
:10259000B1F05523A1F4FD01EC55FB4F8081882358
:1025A00071F01082812F0E94A05C109235058091FD
:1025B0004405809341058CE3809300012EC0CE0139
:1025C00084589F4F893F910570F4AC55BB4FCC9315
:1025D00082E00E949A5116FF03C081E08093350586
:1025E0008091420510C01C161D0614F083E801C03E
:1025F0008DE7AC55BB4F8C9382E00E949A511092AC
:1026000035058091440580934105CE0164E070E07A
:102610000E94AD68645C6093000110E0812FDF913F
:10262000CF911F91FF90EF9008951F932091C70FB6
:102630003091C80F40E08091AF059091B005281708
:10264000390709F041E040934D058091C70F909103
:10265000C80F9093B0058093AF0582EE95E060E0DF
:102660000E94B51D80914D05882309F400C180E0CA
:102670000E94AB510E94605B0E94895B0E944E12D7
:10268000182F80914E0590914F05009729F00197E2
:1026900090934F0580934E05112389F08091BE02DF
:1026A00090E024EF31E0AC01429FC001439F900DC8
:1026B000529F900D112490934F0580934E05809169
:1026C000A70260E040E00E94A50F882339F48091C2
:1026D0004E0590914F05892B09F4C7C0C79A2091E8
:1026E000BD053091BE058091480590914905821B3A
:1026F000930B60E270E00E94AD6870934B056093AD
:102700004A056115710591F08091AD059091AE0576
:10271000821B930B62E070E00E94AD6870934B05E2
:1027200060934A0530934905209348053093AE05E0
:102730002093AD05E0914005F0E0EE0FFF1FEA5C4D
:10274000FA4F0190F081E02D812F09950E94375BAF
:102750008091630081FF04C0809165008F7E03C07B
:10276000809165008061809365008091C70F909192
:10277000C80F8F7190708230910521F0039709F096
:1027800076C05CC0E7EDF4E0E491F0E0EE0FFF1FEF
:10279000E659FA4F8FB7F8940190F081E02D87FF4A
:1027A00001C078948091A602992787FD9095880FA3
:1027B000991F880F991F8E0F9F1F24E230E0AC01F4
:1027C000429FC001439F900D529F900D1124392FBD
:1027D00036958091AC05882311F43093AC05809137
:1027E000AC0527E0829FC0011124830F911DF3E007
:1027F00096958795FA95E1F7982F8093AC0580938D
:102800004C058091AB05805E8093AB05882379F5FC
:102810008091A502981758F580914605809341054F
:1028200082E3809300018091BC0283FF20C082E399
:1028300090E090934F0580934E0519C08091B902A6
:10284000869586958695877090E0BC01660F771F08
:10285000660F771F680F791F68527B4F82E495E0FF
:1028600045E050E00E94FD6802C0C79838CF1F9134
:102870000895FF920F931F938C01F62E0E94605BC8
:1028800082E260E046E255E020E80E944E5980E096
:1028900068E1A8010E947C598CE168E348E155E0B9
:1028A0000E947C590E94375BFF2011F089E102C031
:1028B0008091A4020E942D5B809146058093410582
:1028C00082E3809300010E94895B807F803291F0D7
:1028D0008091A70260E040E00E94A50F882331F4B8
:1028E0008091BE02882311F4FF2011F0C79AEBCF2C
:1028F000C798E9CF1F910F91FF9008959C01809197
:102900004005E82FEF5FE0934005E53040F080930D
:10291000400581EF94E060E00E94391408958091B1
:1029200042058093410582E380930001F0E0EE0FC1
:10293000FF1FEA5CFA4F318320838FEBF901099581
:102940000895E0914005EE23C9F0882311F0E0E0FE
:1029500001C0E150E093400580914205809341051C
:1029600082E380930001F0E0EE0FFF1FEA5CFA4F74
:102970000190F081E02D8EEB0995089584E095E0BB
:1029800060E00E94391408958091B90287FD07C064
:10299000887329F48DE595E060E00E94391408956C
:1029A0000F931F93CF93DF938091B90280FD51C0A5
:1029B0008091C70F9091C80F4497D0F38091BA02CD
:1029C00090E08170907022E030E0281B390BE22FFC
:1029D000F0E0E053FB4FE491F0E0EE0FFF1FE6590B
:1029E000FA4F8FB7F8940081118187FF01C0789466
:1029F000F901EE0FFF1FEA58FD4FC181D2812785F3
:102A00003089058CF68DE02DC90168E070E00E94E8
:102A1000AD68621B730B6C0F7D1F6017710724F488
:102A20008091BC0280FF10C0CE0FDF1FCF0168E095
:102A300070E00E94AD68C61BD70B0C171D074CF445
:102A40008091BC0280FF05C08DE695E060E00E94A9
:102A50003914DF91CF911F910F9108950F931F9318
:102A60008C010E94605B82E260E04CE255E020E86D
:102A70000E944E5980E068E1A8010E947C590E94A2
:102A8000375B8091A4020E942D5B1F910F910895E6
:102A90001F938091B90281FD2FC00E94605B82E28A
:102AA00060E047E555E020E80E944E5980E060E292
:102AB00046E455E00E947C5980E068E344E355E039
:102AC0000E947C590E94375B8091A4020E942D5B7A
:102AD0001EE00EC0113141F0812F8D5060E040E0CA
:102AE0000E94A50F882311F41F5F02C01EE0F4CFDF
:102AF000163180F31631D1F71F9108958091B902F4
:102B000082FD0AC00E949954883C910528F48AE706
:102B100095E060E00E94391408950F93CF93DF93FE
:102B20008091BC0284FD33C00E94605B80E060E065
:102B30004CE850E020E000E00E941E580E94375B05
:102B40008091A4020E942D5BC091C70FD091C80F45
:102B5000C853DF4F12C00E94895B807F8032B9F07A
:102B60008091A70260E040E00E94A50F882321F435
:102B70008091BE02882349F0C79A8091C70F909137
:102B8000C80FC817D90739F702C0C798F6CFDF9129
:102B9000CF910F910895EF92FF920F931F93CF93D0
:102BA000DF939FEF9ABB1BBA81E887BB8EE788BB98
:102BB0008EE384BB81EC85BB11BA92BB88E082B9FD
:102BC00087EF83B9109261009093620080E1809357
:102BD0006400909365000E94F25A0E94506880E45D
:102BE00087B985E886B987E083BF82E081BF87B770
:102BF000836087BF1FBC8AE08EBD10928B0082EC81
:102C000080938A0080917D00806280937D0078941B
:102C100086EB95E2909337058093360589E10E9413
:102C20002D5B0E94B2530E948D150E947E150E945A
:102C3000CC0D0E94D0140E9448150E94C4140E941A
:102C4000461B2DE088E190E00FB6F894A89581BD71
:102C50000FBE21BD82EE95E060E00E94B51D87EEBB
:102C60009FE30E947E1481E00E94A1148091A4023F
:102C70000E942D5B8091BE0290E024EF31E0AC0118
:102C8000429FC001439F900D529F900D112490933D
:102C90004F0580934E0587B7806187BFF09062052E
:102CA000E2B680916205F816C9F7E091BD02F0E046
:102CB000EE0FFF1FEF5FFE4F0190F081E02D0995B1
:102CC0000E94151380916105833019F4A895109224
:102CD00061052091620532B7809162052817C9F716
:102CE0001F2D00E08E2D90E0802B912BD22FC0E085
:102CF000232F30E02C2B3D2B4091B4075091B5078A
:102D0000281B390B2417350708F49A013093B507AF
:102D10002093B407C3CF0F93022F50E0440F551FE9
:102D2000440F551F4C505A4F24E00E941C590F91DC
:102D300008950F93022F442319F44EE157E01CC06D
:102D4000242F30E04150443080F44091BA0250E0EA
:102D5000440F551F440F551F420F531F440F551F5B
:102D6000440F551F45575B4F07C0220F331F220FDB
:102D7000331F235A394FA90124E00E941C590F9197
:102D80000895EF92FF920F931F93082FF62E142FA2
:102D9000E22E442329F0403139F0403F81F408C04D
:102DA0008A5F40EF55E007C08A5F4CEE55E003C0F4
:102DB0008A5F48EE55E02E2D0E944E591CC0441FDC
:102DC0004427441F405E0E947B58802F8A5F212F3A
:102DD000332727FD309537FF03C0309521953F4FAE
:102DE00043E02402A001112449545A4F6F2D23E0DF
:102DF0000E2D0E941C591F910F91FF90EF90089586
:102E0000DF92EF92FF920F931F93F82EE62ED42EAF
:102E10001091CD02812F992787FD909597FF03C0D0
:102E2000909581959F4F80319CF443E08402A001EE
:102E3000112447575A4F8F2D6E2D23E00D2D0E94E0
:102E40001C591F3F4CF58F2D86506E2D41E221C03D
:102E50008F3174F411161CF4412F4F5002C0412FD2
:102E6000415F8F2D86506E2D2D2D0E94C11614C0EE
:102E700011161CF4412F4E5102C0412F425E8F2D7E
:102E800086506E2D2D2D0E94C1168F2D8E5E6E2DBB
:102E90004DE62D2D0E947B581F910F91FF90EF90D2
:102EA000DF900895FF920F931F93182F062FF22E95
:102EB000442321F4885E46E50E947B5840914C05EE
:102EC000812F885E602F50E02F2D0E94535A1F9152
:102ED0000F91FF900895DF92EF92FF920F931F934F
:102EE000CF93DF93F82EE62EEA01122FD02E57FD56
:102EF00002C040E201C04DE28F2D6E2D212F0E94B5
:102F00007B5817FD02C081E101C089E1F80E212F35
:102F10002E7F8F2D8D5F6E2D4AE30E947B58D7FF49
:102F200003C0D095C195DF4FCE016CE370E00E94E5
:102F3000AD68AB01212F24608F2D6E2D02E00E9421
:102F4000C45917FD02C022E101C028E1CE016CE3A3
:102F500070E00E94AD68AC0184E0D82A822F8F0D0A
:102F60006E2D2D2D02E00E94C459DF91CF911F914B
:102F70000F91FF90EF90DF900895FC0160E270E008
:102F80000E94AD689B01CF0160E870E00E94AD68CF
:102F9000261B370B2E0F3F1FCF0160E072E00E940F
:102FA000AD68260F371FC90108956F927F928F92E7
:102FB0009F92AF92BF92CF92DF92EF92FF920F93C8
:102FC0001F933B017C0100E010E08824992464E613
:102FD00070E080E090E06619770988099909A801F6
:102FE00097010E946E685B016C0182E390E0A0E0B3
:102FF000B0E0A80EB91ECA1EDB1EC801B7010E94B0
:103000006E680E946E68BC0188279927A40193010D
:103010000E946E6824E096958795779567952A9526
:10302000D1F7A60EB71EC81ED91EC601B50124E6EB
:1030300030E040E050E00E94C068C9011F910F914C
:10304000FF90EF90DF90CF90BF90AF909F908F90C8
:103050007F906F900895FF920F931F939C01AB0197
:103060006115710531F1FF2497FF05C0FF24F3942A
:10307000309521953F4F57FF10C000E014E06627C0
:103080007727641B750BC801821B930B0E94D51711
:103090009801281B390BC90104C0C901BA010E945B
:1030A000D517FF2011F49C0104C022273327281BC9
:1030B000390BC9011F910F91FF900895282FE1E26C
:1030C000FCE080E09491921731F03196992311F051
:1030D0008F5FF8CF80E00895883210F080E2089585
:1030E000E82FF0E0EF5DF34F849108959C0140E0FC
:1030F000683008F041E070E0442371F0CB0108979C
:10310000FC0163E0EE0FFF1F6A95E1F7E80FF91F7E
:10311000DF01A053BB4F0AC0FB01EE0FFF1FEE0FF4
:10312000FF1FE60FF71FDF01A855BB4FFD01808190
:1031300020503C4F37FD0EC068E02030360784F049
:10314000442319F484E090E002C088E090E0A80FE6
:10315000B91F8C91992787FD9095582F442733C02C
:10316000442331F0432FB9017070660F771F04C0FC
:10317000432F4695B9017170842F90E0FD01E80F4F
:10318000F91F8181992787FD90959B01359527959A
:10319000829FA001839F500D929F500D112420818A
:1031A000332727FD309580E092E0861B970B95959D
:1031B0008795BC01269FC001279F900D369F900DDB
:1031C0001124480F591FCA0169E170E00E94AD68DF
:1031D000CB010895EF92FF921F93CF93DF9310914D
:1031E000D202110F185F9091D50284E69802C001B7
:1031F0001124EC01C85ADD4F1A3028F448EC5FEA7C
:103200004C1B5D0B0DC08853904F212F30E0829FE7
:10321000A001839F500D929F500D1124405C504E91
:10322000A8EBB7E0E2EEF5E0612F70E0660F771FE4
:10323000660F771F6A0F7B1FEE24FF24EC1AFD0A2E
:103240001FC02081318184E0203038071CF020E04D
:1032500034E006C08CEF2130380714F420E03CEF56
:10326000205A364FC701821B930B480F591F1196E6
:10327000DC93CE9313963C932E931297149632962A
:10328000A617B707F1F6E12FEE0FAE2FB0E0AA0FA9
:10329000BB1FA854B84FCD93DC93EF5FAE2FB0E0C7
:1032A000AA0FBB1FA854B84F4D935C93EF5FF0E09B
:1032B000EE0FFF1FE854F84F11821082DF91CF917B
:1032C0001F91FF90EF900895A091120AB091130AF8
:1032D000FD018193919313967C936E93129732968E
:1032E000F093130AE093120A0895882329F020E648
:1032F00039E080E699E004C020EB34E080EB94E014
:10330000A091120AB091130AFD0181939193139633
:103310003C932E9312973296F093130AE093120A7D
:1033200008951F93182F82700E947519812F817044
:103330000E9475191F910895CF92DF92FF920F930B
:103340001F93DF93CF9300D0CDB7DEB78091D1022A
:10335000813019F0823019F404C010E003C011E08C
:1033600001C012E02091E2053091E30520503C4F6E
:10337000220F331F8091E4059091E50580509C4F0A
:10338000880F991F892F232F37FD20E087FD80E0CC
:10339000022F20310CF00FE0F82E2FE0281714F444
:1033A0005FE0F52E2F2D332727FD3095802F9927AD
:1033B00087FD909509968217930714F40F2D0950F5
:1033C000C02EDD24C7FCD094275F3F4F2C153D0550
:1033D0001CF447EFF42EF00E80E797E19093B907C5
:1033E0008093B80780EB94E09093BB078093BA0773
:1033F0008CEB97E09093130A8093120A80E00E946E
:103400009119A091120AB091130A80E699E0FD018A
:103410008193919320EB34E013963C932E93129773
:10342000DF0112969383828313963C932E93129717
:103430001496B093130AA093120A812F0E94911937
:103440001195C60195958795959587958A830E94D4
:1034500091193A81131B802F0E949119101B8F2DF7
:10346000992787FD9095959587959595879589835B
:103470000E9491198981181B8F2D0E949119812F0B
:103480008F190E94911980E00E947519E091120A2B
:10349000F091130A80E69AEE9293829332961192FB
:1034A0001192F093130AE093120A0F900F90CF91AC
:1034B000DF911F910F91FF90DF90CF900895A09121
:1034C000120AB091130A882341F0FD0180E293E0D3
:1034D0008193919380E496E007C0FD0180E496E03B
:1034E0008193919380E293E013969C938E9312972D
:1034F0003296F093130AE093120A08950F931F93E4
:10350000082F10E0802F81700E945F1A1F5F0695C0
:103510001830C1F71F910F9108950F931F9388EBF7
:1035200097E09093130A8093120A8091140A91E015
:1035300089278093140A882309F454C08091E205F6
:103540009091E305885F9B4F34E0969587953A9577
:10355000E1F78038910510F08FE790E0182F209167
:10356000E4053091E50537FD0FC0C901409625E01F
:10357000969587952A95E1F78034910510F08FE3B1
:1035800090E0082F00640FC080E190E0821B930B55
:1035900005E0969587950A95E1F78034910510F03E
:1035A0008FE390E0082F812F0E947E1A802F0E94C7
:1035B0007E1A0127802F90E09C0114E03595279515
:1035C0001A95E1F7B4E0880F991FBA95E1F7822BBD
:1035D0000E947E1AA091120AB091130AFD0180E1A7
:1035E00097E230C08091E6059091E70580509C4FAE
:1035F000A4E096958795AA95E1F78038910510F09B
:103600008FE790E0082F0068802F0E947E1A8EE8D6
:103610000E947E1A8EE8082710E0C801F4E0959514
:103620008795FA95E1F7E4E0000F111FEA95E1F7BD
:10363000802B0E947E1AA091120AB091130AFD01FC
:1036400080EB96E38193919380EA9FE013969C939D
:103650008E9312973296F093130AE093120AE09138
:10366000120AF091130A11921192F093130AE09347
:10367000120AE85BF740E03FF1052CF087ED97E098
:1036800060E00E9439141F910F9108958091D1023A
:10369000843018F4813038F403C0843049F406C013
:1036A0000E94EA1808950E949C1908950E948D1A9C
:1036B0000895FF920F931F93CF93DF93082F1091DC
:1036C000CD02812F992787FD909597FF03C0909594
:1036D00081959F4FF82E2EE12817E4F411161CF463
:1036E000812F8E5102C0812F825E60E040E00E94F7
:1036F000A50F282F882361F08091210A882341F4A7
:1037000090E08091240A882309F491E09093240AA0
:103710002093210AC091270AD091280A2196D0939C
:10372000280AC093270AE091250AF091260AE00FA3
:10373000F11DF093260AE093250A8091C70F90911E
:10374000C80F2091290A30912A0A821B930B8436D4
:10375000910508F448C12C593F4F30932A0A209311
:10376000290ACF01BE010E949968062F862F90E09A
:10377000AC014C9FC0014D9F900D5C9F900D11249A
:10378000E81BF90BF093260AE093250A1092280A09
:103790001092270A5FE05F151CF01092240A10C0F7
:1037A0008EE18F156CF011161CF4812F8F5002C022
:1037B000812F815F60E040E00E94A50F8093240A82
:1037C0008091290790912A07019690932A07809368
:1037D000290760912B0770912C076F5F7F4F7093C3
:1037E0002C0760932B07002349F080912F079091BD
:1037F000300701969093300780932F078091240A19
:10380000882349F080912D0790912E07019690937F
:103810002E0780932D07069540913107509132076E
:10382000400F511D5093320740933107E091CF0272
:10383000F091D002F0933507E09334073091CD0238
:10384000832F992787FD909597FF03C090958195C9
:103850009F4F882319F41092330722C0813021F43E
:10386000CF01861B970B18C0803170F480FF07C012
:10387000CA0144E0969587954A95E1F709C0809181
:103880002F079091300704C080912D0790912E074B
:10389000AF01481B590BCA01909335078093340739
:1038A00080913307813041F0813018F08230F1F49B
:1038B0000EC03323D9F017C080913407909135079B
:1038C000181619069CF0309789F082E00DC080919F
:1038D000340790913507855C9F4F1CF483E08093FB
:1038E0003307309719F481E0809333072091340730
:1038F000309135078091220A9091230A821793070D
:1039000009F463C080913307813009F04BC04091C6
:10391000BC0242FF2CC02E31310511F482E003C0FD
:103920002431310519F48093630506C02A3031052E
:1039300019F0243031053CF4809144058093410511
:1039400082E38093000143FF12C02E31310549F01C
:103950002431310531F02A30310519F02430310598
:1039600034F482E390E090934F0580934E0541FF3D
:103970002CC08091CE02882321F0CF01821B930BB3
:1039800001C0C9016CE370E00E949968892BE9F4D9
:10399000809144058093410582E38093000143FFB9
:1039A00014C00DC0823089F4809145058093410593
:1039B00082E3809300018091BC0283FF06C082E312
:1039C00090E090934F0580934E053093230A209307
:1039D000220A8091CE02882331F0E21BF30BF09390
:1039E0003507E0933407DF91CF911F910F91FF903E
:1039F00008952091CD02822F992787FD909597FFFA
:103A000003C0909581959F4F982F8230A4F180310B
:103A100094F585959A309CF4E82FFF27E7FDF09503
:103A20008091BA0290E0880F991F880F991FE80FC4
:103A3000F91FE55FFE4F8081E82FF0E004C0E82F1A
:103A4000FF27E7FDF0953197EE0FFF1FEF54FA4F78
:103A50000190F081E02D27FF05C080E094E08E1BEF
:103A60009F0B03C0CF0180509C4FE6E09695879551
:103A7000EA95E1F702C080E090E00E94591BE091D6
:103A8000BA02F0E0EE0FFF1FEE0FFF1FE25FFE4FE6
:103A9000E081F0E0EE0FFF1FE155FA4F0190F08159
:103AA000E02D8091BC0280FF05C080E094E08E1B79
:103AB0009F0B03C0CF0180509C4F56E09695879591
:103AC0005A95E1F760911D0A70911E0A6F5F7F4F52
:103AD00070931E0A60931D0A40911B0A50911C0AA4
:103AE000480F591F50931C0A40931B0A8091C70F1F
:103AF0009091C80F20911F0A3091200A821B930BCE
:103B0000885E934088F18091C70F9091C80F909381
:103B1000200A80931F0A10921C0A10921B0A10920E
:103B20001E0A10921D0A8091B0079091B10701966C
:103B30009093B1078093B0072091AE073091AF0703
:103B4000F901EA5CF84FCA010E94996860832F5F0F
:103B50003F4F3093AF072093AE072837310520F051
:103B60001092AF071092AE0708952F923F924F9296
:103B70005F926F927F928F929F92AF92BF92CF92FD
:103B8000DF92EF92FF920F931F93DF93CF93CDB706
:103B9000DEB760970FB6F894DEBF0FBECDBF988B2F
:103BA0008F87262E80914D05882309F46FC0809160
:103BB000E105882319F081508093E1058091BB02D3
:103BC000882309F463C080912A0990912B09A09160
:103BD0002C09B0912D090196A11DB11D80932A09D0
:103BE00090932B09A0932C09B0932D09E8EAF8E0F3
:103BF00020E030E08191919160E870E00E94AD6832
:103C0000260F371F48E0E03BF407A1F780912E090B
:103C100090912F092817390761F030932F092093CD
:103C20002E0910922A0910922B0910922C09109239
:103C30002D09E0902A09F0902B0900912C09109190
:103C40002D096091BB0270E080E090E020E737E151
:103C500040E050E00E946E686E157F058007910776
:103C6000A8F46FE370E080E090E0E622F7220823FA
:103C700019237AE0E716F1040105110539F4809162
:103C800045058093410582E38093000107E7602E9C
:103C900002E0702E18E7412E14E0512E3324EE245A
:103CA000FF2488249924DE2C8E2D0E94530D9C0124
:103CB000D3018D919C911197281B390B1216130675
:103CC0002CF45C96ED91FC915D9705C0D3011E9696
:103CD000ED91FC911F97E436F10514F4E4E6F0E071
:103CE000B901882777FD8095982FBAE0660F771F76
:103CF000881F991FBA95D1F79F01442737FD40953A
:103D0000542F0E94E2688901BCEF21303B071CF46C
:103D100000E01CEF06C0E4E020303E0714F000E0B5
:103D200014E0F401EF54FA4F11830083C8010F9699
:103D30004F9720F5F4E0EF16F104BCF4E091BA02DD
:103D4000F0E0EE0FFF1FEE0FFF1FEE0DFF1DE45F13
:103D5000FE4F808190E0019721E030E002C0220F09
:103D6000331F8A95E2F7C90108C081E090E00E2C6C
:103D700002C0880F991F0A94E2F7382A33E03D15F4
:103D800008F406C1D2018C9160E040E00E94A50FCA
:103D9000882311F4CC240DC0F201818160E040E061
:103DA0000E94A50F882319F0E2E0CE2E02C0CC2499
:103DB000C3948091BA0290E08170907072E0A72E57
:103DC000B12CA81AB90AAE14BF0449F58091D302E8
:103DD000807F29F100501C4FEC2DF0E0EE0FFF1F0B
:103DE000EE0FFF1F9701220F331FC90143E0880F19
:103DF000991F4A95E1F7821B930BE80FF91FE459CD
:103E0000FB4F6081772767FD7095C8019595879571
:103E10000E942B18DC01AA0FBB1FDD2427C0DD2464
:103E20001016110614F0DD24D3948C2D90E0970128
:103E3000220F331FF901A3E0EE0FFF1FAA95E1F750
:103E4000E21BF30B880F991F880F991FE80FF91FCA
:103E5000EE53FD4FED0DF11DE655FE4F60817727C6
:103E600067FD7095C8010E942B18DC01EC2DF0E075
:103E7000EE0FFF1FEE0FFF1F9701220F331FC90127
:103E800043E0880F991F4A95E1F7821B930BE80FD7
:103E9000F91FEE53FD4FED0DF11DE455FE4F60810E
:103EA000772767FD70956C597F4F882777FD809540
:103EB000982F9D01442737FD4095542F0E946E682E
:103EC00024E630E040E050E00E94E2688901AE1450
:103ED000BF0409F04CC09091D302892F807F09F470
:103EE00027C50050144024C58091BC02F501EE5353
:103EF000FD4F80FF16C000501C4FB801882777FD8A
:103F00008095982F00501440EE51FE4F20813327AA
:103F100027FD3095432F532F2D57304040405040C0
:103F200014C060E074E0601B710B882777FD8095FA
:103F3000982FEE51FE4F2081332727FD3095432FD8
:103F4000532F23583F4F4F4F5F4F0E946E6820E022
:103F500038E040E050E00E94E268C901DA018030B8
:103F6000F8E09F07F0E0AF07F0E0BF0739F4F70192
:103F7000EC55FB4F8081992787FD9095880F991FFD
:103F8000E1E0F0E0EC0FFD1FE80DF91D9183808367
:103F9000F401E855F74F118300830894E11CF11CEC
:103FA00022E030E0620E731E820E931E4EE050E05F
:103FB000440E551E57E0E516F10409F074CE409109
:103FC000D7024321242F30E08091300990E08227EE
:103FD000932782239323892B39F080914305809383
:103FE000410582E3809300014093300980E094E032
:103FF0009093B7088093B6089093B9088093B80857
:104000006AEB78E040E050E0FA01E05BFA4FDA0159
:10401000AA58BD4F80819181D2962D913C91D39722
:10402000821B930B880F991FDB018D939D93BD011C
:104030004E5F5F4F4031510539F7EAEEF8E0FA87FD
:10404000E987AAECB8E0808191818D939D933496A5
:1040500029E0EA32F207B9F780914D05882311F083
:104060000E94F91C80E4EAEEF8E0DF011D928A95D7
:10407000E9F72220F9F0A8EAB8E0FE01319620E045
:1040800030E042E050E08091BA0290E081709070A0
:10409000BA01681B790B6217730729F011961C92FD
:1040A0001E92118210822F5F3F4F1296329624305B
:1040B000310549F71092110A0CEDA02E02E0B02E46
:1040C00081EF99E09E878D8711E7612E19E0712EAF
:1040D000A1E3B9E0BC87AB8744245524342C252CBC
:1040E000F50180818150803138F0BCE16B2EB4E065
:1040F0007B2E4424552457C3D50113968C9161E03F
:1041000040E00E94A50FED85FE859081882329F56A
:10411000592F1082D50111962C91822F8850823010
:1041200008F025C3C201FC01A3E0EE0FFF1FAA9512
:10413000E1F7880F991FE80FF91FE452FD4F8781BF
:104140008E70843009F413C3293019F0CC24DD2497
:1041500046C0C12C6CEFD62E42C050E0992309F422
:1041600051E081E0ED85FE858083D5011196EC91CB
:10417000F0E0EE0FFF1FEA55F74FC080D180832D8E
:10418000922DFC0133E0EE0FFF1F3A95E1F7880F07
:10419000991FE80FF91FE452FD4F8781807FF9F0E6
:1041A000832D922DFC0103E0EE0FFF1F0A95E1F72E
:1041B000880F991FE80FF91FED51FD4F80818295FF
:1041C0008F7090E00197E1E0F0E002C0EE0FFF1F7A
:1041D0008A95E2F72091110A2E2B2093110AD5011E
:1041E00018964C914423E9F0842F47FD8D5F859507
:1041F0008595282F332727FD3095BAE04B02C00163
:104200001124280F391F842F47FD815C86FB880FFE
:10421000880B80F9992787FD9095281B390BC20ED2
:10422000D31E832D922DFC01B3E0EE0FFF1FBA9534
:10423000E1F7880F991FE80FF91FE452FD4F8681BF
:10424000882391F4832D922DFC0173E0EE0FFF1F64
:104250007A95E1F7880F991FE80FF91FE452FD4F97
:104260008581882309F49AC1F3016081718182817B
:104270009381552389F420E031E040E050E00E9432
:10428000E26850954095309521953F4F4F4F5F4FD5
:104290004601820E931E85C0832D922DFC0153E0B2
:1042A000EE0FFF1F5A95E1F7880F991FE80FF91FCE
:1042B000E452FD4F87818E70843049F5D501EC9131
:1042C000F0E0EE0FFF1FE853F74F60817181882700
:1042D00077FD8095982F20E034E640E050E00E9482
:1042E0006E68F3016083718382839383D501129694
:1042F0002C91222361F0332727FD3095432F532F34
:104300000E94E268F3012083318342835383D30107
:104310006D917D918D919C9120E031E040E050E0E5
:104320000E94E26850954095309521953F4F4F4F40
:104330005F4F4601820E931E8114910491F197FE06
:1043400010C0832D922DFC0123E0EE0FFF1F2A9554
:10435000E1F7880F991FE80FF91FEF51FD4F80819A
:1043600010C0832D922DFC0113E0EE0FFF1F1A9554
:10437000E1F7880F991FE80FF91FEF51FD4F80817A
:1043800082958F7090E0FC0124E630E0E29FC0014E
:10439000E39F900DF29F900D1124AB85BC858D930A
:1043A0009C93EB85FC85208131812115310551F0ED
:1043B00080914D05882309F4E5C0215030403183B8
:1043C0002083E0C08114910409F4E8C0832D922D6C
:1043D000FC01A3E0EE0FFF1FAA95E1F7880F991FDC
:1043E000E80FF91FE452FD4F8681882309F4D6C0F7
:1043F00080914D05882309F493C0F5012281222381
:1044000039F4E12CF12C60E2062F63E0162F17C07F
:10441000332727FD309537FF03C0309521953F4F57
:10442000332727FD3095432F532F60E070E080E263
:1044300093E00E94E268C901DA017C018D01181441
:1044400019048CF5832D922DFC0153E0EE0FFF1F14
:104450005A95E1F7880F991FE80FF91FEE51FD4FAC
:1044600080818F7090E0009709F44CC044E650E0E2
:10447000849F9001859F300D949F300D1124442717
:1044800037FD4095542FC801B7010E94E2687901B9
:104490008A01F30180819181A281B381E80EF91E26
:1044A0000A1F1B1F38C0832D922DFC0133E0EE0F35
:1044B000FF1F3A95E1F7880F991FE80FF91FEE519A
:1044C000FD4F808182958F7090E00097D9F044E68F
:1044D00050E0849F9001859F300D949F300D1124F2
:1044E000442737FD4095542FC801B7010E94E26868
:1044F000D301ED90FD900D911C91E21AF30A040B8B
:10450000150B09C0C601AA2797FDA095BA2FEE2466
:10451000F82E092F1A2FF301E082F1820283138310
:10452000D3016D917D918D919C9176010027F7FCCF
:104530000095102F1814190464F420E031E040E0D5
:1045400050E00E94E268E216F3060407150764F0E3
:1045500019C020E031E040E050E00E94E2682E15F2
:104560003F054007510774F4C601AA2797FDA0959F
:10457000BA2FBA2FA92F982F8827F3018083918310
:10458000A283B383D3016D917D918D919C9120E0A5
:1045900031E040E050E00E94E2686901F501648189
:1045A000633071F1643028F4613051F06230A8F466
:1045B00048C0653081F1653050F16630B1F52EC0EC
:1045C000D50111968C91893029F4D7FC2AC0E0E0FE
:1045D000FEEF0DC0D7FE35C02EC0D50111968C91CF
:1045E000893051F41C141D044CF1E0E0F2E0CE0ED1
:1045F000DF1ECC0CDD1C25C01C141D04E4F021C002
:10460000D7FE1FC0D094C194D108D3941AC01C14F3
:104610001D04A4F010C0D7FE0EC003C01C141D045E
:104620006CF0C12CECEFDE2E0CC06750C6010E946E
:1046300076186C0106C0CC24DD2403C0C12C74E0C4
:10464000D72E832D922DFC0163E0EE0FFF1F6A959C
:10465000E1F7880F991FE80FF91FE452FD4F87819A
:1046600080FD15C0D5011196EC91EE2381F0E53067
:1046700070F4F0E03197EE0FFF1F21E030E02C0FD7
:104680003D1FE20FF31F80819181C80ED91EB60134
:10469000882777FD8095982FD50112962C91332786
:1046A00027FD3095432F532F0E946E686B017C01CC
:1046B000832D922DFC0133E0EE0FFF1F3A95E1F7B9
:1046C000880F991FE80FF91FED51FD4F80818695E6
:1046D000877090E08130910581F0D501EC910297CF
:1046E00099F5F0E0EE0FFF1FEE0FFF1FEA51F74FB5
:1046F000C082D182E282F3823AC0F5012081022F8A
:1047000010E0000F111F000F111F0A51174FC701B2
:10471000B60124E630E040E050E00E94E268CA01C1
:10472000B901D8012D913D914D915C910E946E6827
:1047300020E034E040E050E00E94E268F80120838D
:1047400031834283538313C0F0E0EE0FFF1FEE0F5F
:10475000FF1FEA51F74F80819181A281B3818C0DB7
:104760009D1DAE1DBF1D80839183A283B3830894DA
:10477000411C511C2AE030E0A20EB31E4D855E851F
:104780004F5F5F4F5E874D8764E070E0660E771E77
:104790008B859C8502969C878B8790E249165104F5
:1047A00009F09CCCA2CCA985BA85CD90DD90ED9086
:1047B000FC90C701B60124E630E040E050E00E94E2
:1047C000E268E985FA852083318342835383F201CD
:1047D000E154FA4FC90120839183D30113962D919F
:1047E0003C91149711968C91BAE08B0280011124B0
:1047F00008511C4FF30180818B025001112448E1C4
:104800005CEFA40EB51EC801502F492F20173107A9
:104810001CF4C901522F492F852F942F4C018A1463
:104820009B040CF44501C114D104E104F10469F1C5
:104830009401442737FD4095542F1C141D041E0479
:104840001F0454F4B801882777FD8095982F621BC8
:10485000730B840B950B0BC0C501AA2797FDA09580
:10486000BA2F281B390B4A0B5B0BCA01B901A701F0
:1048700096010E946E6820EA36E841E050E00E940E
:10488000E268C901DA016C017D01C4010E94BD1713
:10489000AA2797FDA095BA2FC80ED91EEA1EFB1EA7
:1048A000C8010E94BD178C01C5010E94BD17BC0143
:1048B000C801AA2797FDA095BA2FA70196018C15CC
:1048C0009D05AE05BF0514F49C01AD017B010027D9
:1048D000F7FC0095102F2E153F054007510714F4E3
:1048E000A8019701D30112968C91882339F0509535
:1048F0004095309521953F4F4F4F5F4FF894EF858E
:10490000F889E40DF51D318320837894E985FA85D3
:104910003496FA87E98722E030E0420E531E45E0E4
:1049200050E0640E751EEA52F94009F03CCF04C015
:104930009F7009F0D9CA1BCB60960FB6F894DEBF02
:104940000FBECDBFCF91DF911F910F91FF90EF90E0
:10495000DF90CF90BF90AF909F908F907F906F909F
:104960005F904F903F902F9008950F931F93CF9398
:10497000DF9386E291E0E2E0F6E0DF019C011D9228
:1049800021503040E1F790912807CCEDD2E000E0D3
:1049900010E051E060E04881442309F440E104174D
:1049A00050F5202F712F352F2F5F872F90E0FC01BE
:1049B000EE0FFF1FE80FF91FEE0FFF1FDF01AE5FC5
:1049C000B94F11962C9311978C9181608C93EC5F69
:1049D000F94F30833F5F14966C937F5F241720F369
:1049E000802F8095042F952F9F5F980F180F140F1D
:1049F000940F592F515078817723D1F1812F90E076
:104A00009C01220F331F280F391FD901AA0FBB1F8A
:104A1000AE5FB94F11964C93119715966C931597FD
:104A20008C9182608C9313965C9313975F5F8A8559
:104A3000F9013196781741F4EE0FFF1FEE5FF94F41
:104A4000108214961C920AC0EE0FFF1FEE5FF94F02
:104A500050835F5F6F5F14966C936150952F6F5F0B
:104A60002A96603219F45093280704C01F5F93CF31
:104A700090932807DF91CF911F910F910895EF92A6
:104A8000FF920F931F93DF93CF93CDB7DEB7A0971D
:104A90000FB6F894DEBF0FBECDBF8E010F5F1F4F64
:104AA000C80161E00E94B51DEEE1F4E0B801B2EE8C
:104AB000EB2EB5E0FB2E018112818081DB014D914F
:104AC0005C91D7012D913C91882321F0CA01821B72
:104AD000930B03C0C901841B950B800F911FB3E09A
:104AE000883E9B071CF088EE93E006C02CEF8931CE
:104AF000920714F488E19CEF9283818335966E5F70
:104B00007F4F82E090E0E80EF91E94E0EE36F90760
:104B100091F68091BA0290E08170907022E030E0CE
:104B2000281B390B16AA2130310511F01092A5046B
:104B30002230310511F01092A6041092A70482E0F1
:104B40000E949A51809143058093410582E38093AE
:104B50000001A0960FB6F894DEBF0FBECDBFCF9177
:104B6000DF911F910F91FF90EF9008954F925F9208
:104B70006F927F928F929F92AF92BF92CF92DF926D
:104B8000EF92FF920F931F93DF93CF930F92CDB7C6
:104B9000DEB7813809F494C08238A0F4813609F474
:104BA00087C0823638F4823209F469C0833209F052
:104BB000B3C05BC08536C1F18038C9F0843609F0D6
:104BC000ABC01BC0843841F1853838F4823809F411
:104BD00069C0833809F0A0C05FC08E3B09F483C070
:104BE0008F3B09F48DC0853809F096C038C00E940B
:104BF000340D0E947E1480E814C084E60E94B15CEB
:104C0000823009F027C68091180A9091190A0097FE
:104C1000C1F420C681E019C087EE9FE30E947E1494
:104C200084E80E94A05C78C085E60E94B15C823076
:104C300009F016C68091160A9091170A009709F498
:104C40000FC60E947E1468C0815080931A0A80911A
:104C500042058093410582E3809300015DC08CE0B2
:104C600099E30E947E1485E8DCCF8091B8028F5FC3
:104C70008093B802833060F01092B80209C080912E
:104C8000B802882311F0815001C082E08093B802FD
:104C900081E00E949A51DBCF88E49CE20E943E0DA5
:104CA00083E8BFCF88E197E60E947E1482E8B9CFFF
:104CB00080913307823081F583E080933307C7CF3B
:104CC0001092330710922C0710922B071092300786
:104CD00010922F0710922E0710922D071092320774
:104CE00010923107B4CF80911A0A082F10E00E9469
:104CF000340D000F111F0A5E154FD8018D939C9340
:104D000081E00E94A05C83E00E94A05C82E00E949F
:104D1000A05C81E08093150A8091D60260E040E0BB
:104D20000E94A50F882331F08091150A882311F481
:104D30000E943F258091D60260E040E00E94A50FCE
:104D40008093150A90914C058091A502981710F058
:104D500000E801C002E882ECC82E82E0D82E1AE0FA
:104D6000812F60E0F60141916F0120E80E947B589D
:104D7000155F1837A9F786E060E141E0202F0E9417
:104D8000521784E268E146E520E00E947B582091BA
:104D90004C05822F6AE00E948D689250923010F488
:104DA00003E001C002E0822F6AE00E948D680E9449
:104DB0008D689150923010F01CE002C00F5F1BE034
:104DC000145F812F6CE1402F0E948B5A812F6DE17F
:104DD000402F0E948B5A80913307882399F08230AC
:104DE00011F000E801C002E8409134075091350706
:104DF00082E460E1202F0E946B1783E368E140E0CA
:104E00000E9400174091D40213E04102A001112436
:104E1000435B574F84E260E123E000E00E941C59AD
:104E20004091D3024295407F4595459545954595DE
:104E30004102A00111244A5B574F89E360E123E05E
:104E40000E941C59AA24BB240FE1D02EF501E05E7C
:104E5000FE4FE080F501EC55FB4FE081E7FDED5F93
:104E6000E595E595E43E0CF4E4EE0E2FED310CF003
:104E70000CE1F501E45EFE4F80818823F9F08E2D70
:104E800064E046E30E948F5A8091BA0290E08A253E
:104E90009B2580FD04C08091D3028F7061F48E2D1C
:104EA00081506EE143E00E948F5A8E2D8F5F6EE13C
:104EB00043E00E948F5A9D2D901B14C08E2D8B5164
:104EC0006CE346E30E948B5A1E2D1150812F6BE339
:104ED00043E00E948B5A812F6DE343E00E948B5A7E
:104EE000E00E9CE31E2D1350092F0350812F602FDD
:104EF00047E099830E948F5A99819D5F812F692F86
:104F000047E00E948B5A8E2D8D5F602F47E00E94F4
:104F10008F5A812F602F47E00E948B5A0894A11C62
:104F2000B11CF4E0AF16B10409F090CF8091B80243
:104F3000823009F4A0C012EEA12E15E0B12ECC24CF
:104F4000DD24BBE16B2E712CA9E18A2E912C2C2D36
:104F5000D5014D905C908091B802882321F081307A
:104F600009F07CC030C0C60183709070869D8001BE
:104F7000879D100D969D100D11242695269530E0E5
:104F80002B5F3F4FF3E0220F331FFA95E1F7C20189
:104F900060E270E00E94AD68FB01C20160E870E071
:104FA0000E94AD68CB018E1B9F0B840D951D6AE09E
:104FB00070E00E94AD68AB01802F8F5D622F20E012
:104FC0000E94535A4BC0243010F01EE501C012E27B
:104FD000960123703070C901880F991F880F991F9F
:104FE000820F931F082F0A5D920157FE04C02227EB
:104FF000332724193509289DC001299D900D389D1E
:10500000900D112480509E4F892F990F990B8595F3
:105010008595E82EB9E1B81714F469E1E62E812FE1
:105020008951602F43E325E50E945D5A602F62504D
:10503000812F45E00E948F5A1414150414F41F5F49
:1050400001C01E190F5F812F602F4E2D0E948B5AB9
:105050000250812F602F4E2D0E948B5A0894C11C44
:10506000D11CE2E0F0E0AE0EBF1EF8E0CF16D10496
:1050700009F06DCFFBC38FE161E247E10E948F5AD7
:105080008FE167E347E10E948B5A85E361E247E1E4
:105090000E948F5A8FE161E247E10E948B5A8BE4B4
:1050A00061E247E10E948F5A8BE467E347E10E9487
:1050B0008B5A81E661E247E10E948F5A8BE461E2FC
:1050C00047E10E948B5A8AE26BE243E00E948F5ACA
:1050D00089E26CE243E00E948B5A86E56BE243E092
:1050E0000E948F5A85E56CE243E00E948B5A8091C2
:1050F000B1059091B205880F991F9C0143E0220FE2
:10510000331F4A95E1F7820F931F60E078E00E9419
:10511000AD68462F8091B3059091B405880F991F13
:105120009C0103E0220F331F0A95E1F7820F931FC2
:1051300060E078E00E94AD68709561957F4F665D94
:10514000842F885D45E00E948F5A8091B10590912F
:10515000B205880F991F9C01B3E0220F331FBA9547
:10516000E1F7820F931F60E078E00E94AD68462F60
:105170008091B3059091B405880F991F9C01F3E0CD
:10518000220F331FFA95E1F7820F931F60E078E05A
:105190000E94AD68709561957F4F625D842F885D38
:1051A00045E00E948B5A8091B1059091B205880F1D
:1051B000991F9C0173E0220F331F7A95E1F7820F4C
:1051C000931F60E078E00E94AD68462F8091B305A0
:1051D0009091B405880F991F9C0153E0220F331F53
:1051E0005A95E1F7820F931F60E078E00E94AD6866
:1051F000709561957F4F665D842F845D45E00E94C8
:105200008F5A8091B1059091B205880F991F9C012A
:1052100013E0220F331F1A95E1F7820F931F60E00E
:1052200078E00E94AD68462F8091B3059091B40557
:10523000880F991F9C01A3E0220F331FAA95E1F765
:10524000820F931F60E078E00E94AD6870956195D1
:105250007F4F665D842F885D45E00E948B5A809168
:10526000B7059091B805880F991F9C01E3E0220FC4
:10527000331FEA95E1F7820F931F60E078E00E9408
:10528000AD68462F8091B5059091B605880F991F9E
:105290009C0163E0220F331F6A95E1F7820F931F91
:1052A00060E078E00E94AD68709561957F4F665D23
:1052B000842F8C5A45E00E948F5A8091B7059091B7
:1052C000B805880F991F9C0143E0220F331F4A95B0
:1052D000E1F7820F931F60E078E00E94AD68462FEF
:1052E0008091B5059091B605880F991F9C0103E048
:1052F000220F331F0A95E1F7820F931F60E078E0D9
:105300000E94AD68709561957F4F625D842F8C5AC5
:1053100045E00E948B5A8091B7059091B805880F9F
:10532000991F9C01B3E0220F331FBA95E1F7820F5A
:10533000931F60E078E00E94AD68462F8091B5052C
:105340009091B605880F991F9C01F3E0220F331F3F
:10535000FA95E1F7820F931F60E078E00E94AD6854
:10536000709561957F4F665D842F885A45E00E9455
:105370008F5A8091B7059091B805880F991F9C01AD
:1053800073E0220F331F7A95E1F7820F931F60E0DD
:1053900078E00E94AD68462F8091B5059091B605E2
:1053A000880F991F9C0153E0220F331F5A95E1F794
:1053B000820F931F60E078E00E94AD687095619560
:1053C0007F4F665D842F8C5A45E00E948B5A609116
:1053D000B9057091BA05882777FD8095982F26E149
:1053E00030E040E050E00E946E685B016C0180E0BC
:1053F00098E5A0E0B0E0A80EB91ECA1EDB1EC601EB
:10540000B50120E038E040E050E00E94E268790118
:105410008A0110950095F094E094E11CF11C011DA7
:10542000111D97E3E90EC601B50120E038E040E028
:1054300050E00E94E2682F5F8AE36E2D422F0E94A7
:105440008F5A6091B9057091BA05882777FD8095CC
:10545000982F26E130E040E050E00E946E685B014A
:105460006C0180E098E5A0E0B0E0A80EB91ECA1E6D
:10547000DB1EC601B50120E038E040E050E00E94AC
:10548000E26879018A0110950095F094E094E11C9E
:10549000F11C011D111D97E3E90EC601B50120E0C5
:1054A00038E040E050E00E94E2682F5F8BE36E2D11
:1054B000422F0E948F5A6091B9057091BA058827D2
:1054C00077FD8095982F26E130E040E050E00E9483
:1054D0006E685B016C0180E098E5A0E0B0E0A80E8A
:1054E000B91ECA1EDB1EC601B50120E038E040E04F
:1054F00050E00E94E26879018A0110950095F094CD
:10550000E094E11CF11C011D111D97E3E90EC60199
:10551000B50120E038E040E050E00E94E2682F5FF3
:105520008CE36E2D422F0E948F5A6091BB057091C3
:10553000BC05882777FD8095982F26E130E040E074
:1055400050E00E946E685B016C0180E098E5A0E08D
:10555000B0E0A80EB91ECA1EDB1EC601B50120E0D0
:1055600038E040E050E00E94E26879018A0110953D
:105570000095F094E094E11CF11C011D111D97E3CE
:10558000E90EC601B50120E038E040E050E00E949D
:10559000E2682F5F8FE36E2D422F0E948F5A609139
:1055A000BB057091BC05882777FD8095982F26E173
:1055B00030E040E050E00E946E685B016C0180E0EA
:1055C00098E5A0E0B0E0A80EB91ECA1EDB1EC60119
:1055D000B50120E038E040E050E00E94E268790147
:1055E0008A0110950095F094E094E11CF11C011DD6
:1055F000111D97E3E90EC601B50120E038E040E057
:1056000050E00E94E2682F5F80E46E2D422F0E94DE
:105610008F5A6091BB057091BC05882777FD8095F6
:10562000982F26E130E040E050E00E946E685B0178
:105630006C0180E098E5A0E0B0E0A80EB91ECA1E9B
:10564000DB1EC601B50120E038E040E050E00E94DA
:10565000E26879018A0110950095F094E094E11CCC
:10566000F11C011D111D97E3E90EC601B50120E0F3
:1056700038E040E050E00E94E2682F5F81E46E2D48
:10568000422F0E948F5A6091BD057091BE058827F8
:1056900077FD8095982F26E130E040E050E00E94B1
:1056A0006E685B016C0180E098E5A0E0B0E0A80EB8
:1056B000B91ECA1EDB1EC601B50120E038E040E07D
:1056C00050E00E94E26879018A0110950095F094FB
:1056D000E094E11CF11C011D111D97E3E90EC601C8
:1056E000B50120E038E040E050E00E94E2682F5F22
:1056F00084E46E2D422F0E948F5A6091BD057091F7
:10570000BE05882777FD8095982F26E130E040E0A0
:1057100050E00E946E685B016C0180E098E5A0E0BB
:10572000B0E0A80EB91ECA1EDB1EC601B50120E0FE
:1057300038E040E050E00E94E26879018A0110956B
:105740000095F094E094E11CF11C011D111D97E3FC
:10575000E90EC601B50120E038E040E050E00E94CB
:10576000E2682F5F85E46E2D422F0E948F5A609170
:10577000BD057091BE05882777FD8095982F26E19D
:1057800030E040E050E00E946E685B016C0180E018
:1057900098E5A0E0B0E0A80EB91ECA1EDB1EC60147
:1057A000B50120E038E040E050E00E94E268790175
:1057B0008A0110950095F094E094E11CF11C011D04
:1057C000111D97E3E90EC601B50120E038E040E085
:1057D00050E00E94E2682F5F86E46E2D422F0E9407
:1057E0008F5A28E1C22E28E0D22E11E090E2E92E55
:1057F000812F60E040E00E94A50F082F8AE06E2D07
:10580000A60123E00E941C591F5FA8E0EA0EE3E016
:10581000F0E0CE0EDF1E143059F78CEFC82E87E073
:10582000D82E17E000E3E02E812F60E040E00E94D8
:10583000A50F082F85E66E2DA60123E00E941C59B6
:105840001F5FF8EFEF0E83E090E0C80ED91E1A300C
:1058500059F70CC080911A0A882309F4DBC95CCA85
:1058600080911A0A882309F0EFC956CA0F90CF9188
:10587000DF911F910F91FF90EF90DF90CF90BF903D
:10588000AF909F908F907F906F905F904F90089512
:105890000F931F93CF93DF93082F80E060E041E7E1
:1058A00058E021E00E944E59013658F0033628F0A6
:1058B000033639F483EF9CE202C086EB95E20E9446
:1058C0003E0D86E068E04DE658E00E947C5940912C
:1058D0002B0750912C0788E168E020E000E00E944F
:1058E0006B1786E668E049E658E00E947C594091D3
:1058F0002D0750912E078CE368E020E00E946B1783
:1059000086E060E145E658E00E947C5940912F070F
:105910005091300788E160E120E00E946B1786E635
:1059200060E141E658E00E947C5940913107509176
:10593000320734E0569547953A95E1F78CE360E1FC
:1059400020E00E946B1786E660E04DE558E00E947B
:105950007C594091290750912A078CE360E020E0B0
:105960000E946B178091B0079091B107893791051C
:1059700018F4C0E0D0E004C0C091AE07D091AF07EA
:1059800082E06CE34EE70E948B5A85E06CE143E2D3
:105990000E948F5A0BE0802F6BE343E00E948F5AE6
:1059A0000A5F0338C1F706E01CE3FE01EA5CF84F2A
:1059B0004081612F641B802F0E948F5A2196C83727
:1059C000D10510F0C0E0D0E08091AE079091AF0714
:1059D000C817D90719F00F5F0E3739F7DF91CF914C
:1059E0001F910F9108951F93182F80E060E040EE03
:1059F00058E021E00E944E59123601F1133628F486
:105A0000103631F0113609F51CC01336F1F419C007
:105A10008FEF97E090930B0180930A011092B307E8
:105A20001092B2071092B5071092B4078091420508
:105A30008093410582E38093000107C088E49CE2E3
:105A400002C086EB95E20E943E0D80E068E04EECDD
:105A500058E00E947C594091B2075091B307569587
:105A6000479584E568E00E94595A80E060E14CEB7C
:105A700058E00E947C5940910A0150910B015695C3
:105A8000479584E560E10E94595A80E068E14AEA5E
:105A900058E00E947C594091B2075091B307809121
:105AA0000A0190910B01481B590B5695479584E5C7
:105AB00068E10E94595A80E060E248E958E00E949B
:105AC0007C592091B4073091B50784E690E0289F77
:105AD000A001299F500D389F500D112474E0569558
