:1000000042C0ADC15BC05AC059C058C057C056C0ED
:1000100055C054C053C052C051C050C04FC04EC054
:100020004DC04CC04BC04AC049C048C047C046C084
:1000300045C044C0040309041C037700770077001F
:100040002E00660069007300630068006C002E00DB
:10005000640065000E035500530042006100730008
:10006000700012011001FF000008C016DC0503013A
:1000700001020001090212000101008019090400B7
:1000800000000000000011241FBECFEFD4E0DEBF4F
:10009000CDBF11E0A0E0B1E0ECECFFE002C00590C4
:1000A0000D92A230B107D9F711E0A2E0B1E001C092
:1000B0001D92A934B107E1F7FBD486C7A1CFE9E6C9
:1000C000F0E0808183608083E89A08951F93CF9346
:1000D000DF9360912901635067FD13C08091260171
:1000E000CCE0D0E0C81BD109C35DDE4F8091250173
:1000F0008D3209F462C08091020187FD84C01092A4
:1001000029018091000184FF4AC0609101016F3F85
:1001100009F445C0693070F1685060930101809125
:10012000190198E889278093190168E080910201FC
:1001300087FD8BC0209127013091280186FF6DC07B
:10014000AAE1B1E080E090E0F901E80FF91FE49145
:10015000ED9301966817C1F76150862F90E06F5FAD
:100160000196820F931F9093280180932701162FE9
:100170001C5F0BC0109201018091190198E889273A
:1001800080931901662391F614E08AE191E0E3D0AF
:100190001C3019F08FEF809301011093000194E15E
:1001A00083B1837031F49150D9F710922A011092E3
:1001B0002401DF91CF911F910895683009F09FCFFE
:1001C00083EC809319018AE580930001109202016B
:1001D0008881807659F59A8110922201898188233D
:1001E00009F043C01092230122E082E291E0909353
:1001F0002801809327018F81882319F49E8192170B
:1002000008F1922F1FC0CE0182D48F3F51F1882375
:1002100009F475CF1092010172CF962FD901EAE14E
:10022000F1E08D9181939150E1F796CFCE0161D5A8
:10023000282F8F3F01F7888187FD25C09FEF80E839
:1002400080930201909301015ACF8AE191E001D598
:10025000682F893008F453C08FEF809301011EE1AD
:100260009CCF8EE1809300014ACF853071F08630BB
:1002700091F0883031F1893061F18A3031F120E03C
:1002800082E291E0B4CF9E81DACF90932A0120E000
:1002900082E291E0ACCF8B81813049F18230F9F07C
:1002A000833029F020E080E480930201A4CF9923D9
:1002B00049F584E390E0909328018093270124E09E
:1002C000F2CF21E08CE291E092CF21E082E291E056
:1002D0008ECF90932C0120E082E291E088CF84E7DA
:1002E00090E0909328018093270122E1DCCF82E601
:1002F00090E0909328018093270122E1D4CF182F1A
:100300001C5F43CF913051F0923061F684E590E06C
:1003100090932801809327012EE0C5CF88E390E0D9
:1003200090932801809327012CE1BDCFA82FB92FEE
:1003300080E090E041E050EA60956F5F58F42D91C5
:1003400038EF82279795879510F0842795273F5F90
:10035000C8F3F3CF0895EADF8D939D930895CF936B
:10036000CFB7CF93C395189BE9F7189B09C0189B8B
:1003700007C0189B05C0189B03C0189B01C0A1C0F3
:10038000DF93C0912601DD27C35DDE4F189B02C0BD
:10039000DF91EBCF2F930F931F9303B12FEF00FB50
:1003A00020F94F933F9313B14FEF012700FB21F941
:1003B0003BE031C04E7F012F13B1216028C0102FC8
:1003C0004D7F2260000003B129C04B7F2460012FC4
:1003D000000013B12BC013B1477F28602AC04F7EA5
:1003E00003B120612CC04F7D13B120622FC04F7B21
:1003F00003B1206432C0422703B149934FEF00009C
:10040000102710FB20F913B11370C9F1297F91F265
:10041000012700FB21F903B1237F89F2315058F104
:10042000102710FB22F913B1277E79F2012700FB78
:1004300023F92F7C81F203B1102710FB24F92F79C7
:1004400071F200C013B1012700FB25F92F7359F297
:1004500000C003B1102710FB26F9223040F200C083
:1004600013B1012700FB27F9243028F64F772068C5
:1004700013B10000F9CF11E01CBB002717C03B509F
:100480003195C31BD04011E01CBB0881033CE9F04F
:100490000B34D9F0209124011981110F1213EDCFE3
:1004A000093641F10D3211F0013E39F700932B016D
:1004B0003F914F911F910F912F91DF91CCB3C0FDD0
:1004C00051CFCF91CFBFCF91189520912B012223EF
:1004D00079F310912901112311F5343012F1309381
:1004E000290120932501109126013BE0311B309317
:1004F000260117C00091290101308CF40AE53091E2
:10050000000134FD10C000930001C9E1D1E00FC02B
:100510002795A8F45150A9F4220F0000F9CF4AE51D
:1005200003C042ED01C0432FC4E1D0E032E014B17A
:100530001360289A14B905B120E413E05F930127F2
:1005400056E005B9279520F4515021F4220FF9CF38
:10055000012756E000003B5A05B9D0F2279528F450
:10056000515029F4220F0000F9CF012756E02795BA
:1005700005B920F4515021F4220FF9CF012756E09C
:100580002991332305B921F60C7F10912A01110F0F
:10059000C651D04005B911F01093240111E01CBBE5
:1005A000016014B11C7F402F4C7F5F9100C000C0E0
:1005B00005B914B945B97CCF809146018CBD8091B5
:1005C00043018DBD0895282F8823A1F0883008F0BD
:1005D00042C088E893E09093450180934401243021
:1005E00019F12530B8F0263099F1263068F127301E
:1005F000F9F0089589EA93E09093450180934401CE
:1006000082E08093480182E58093460181E08093F7
:10061000430108952230A1F0233070F4213049F7CE
:1006200080EC80934801089588E180934801089503
:1006300083E080934801089580E380934801089502
:1006400080E68093480108958CE0809348010895E6
:1006500020934801089589EA93E09093450180939F
:10066000440182E08093480110924301293041F017
:100670002A3050F4283039F683E5809346010895F6
:1006800082E58093460108952B3031F02C3009F03B
:10069000BACF81E08093430181E5809346010895BC
:1006A00026B59091480186B5821B8917E0F308951D
:1006B00084B18C6284B92A982D9896B5209148010E
:1006C00086B5891B8217E0F32A9A96B586B5891BF1
:1006D0008217E0F32A988091440190914501895A4C
:1006E000934021F08FEF8093470108958091460158
:1006F0008CBD809143018DBD8FEF8093470108959C
:1007000084B1837D84B985B1837D85B91CBC08958E
:10071000582F2091480140E030E057FD16C02B983B
:10072000440F1C994F5F2D9A96B586B5891B821789
:10073000E0F32D9896B586B5891B8217E0F33F5FED
:10074000383029F0550F57FFEACF2B9AE9CF842F85
:1007500008958EBD0DB407FEFDCF8EB508950F939D
:100760001F930FE1E0914401F09145018CEA099556
:10077000E0914401F091450183E50995E091440140
:10078000F091450180E00995182FE0914401F09126
:10079000450180E00995133539F11CBC2D9A96B5B9
:1007A0002091480186B5891B8217E0F32D9896B5F4
:1007B00086B5891B8217E0F3E0914401F091450171
:1007C00083E0E93AF80721F0002351F00150CECF41
:1007D000809146018CBD809143018DBD0023B1F70E
:1007E00081E01F910F91089580E01F910F9108956E
:1007F0009B01AC0181E156954795379527958A95E0
:10080000D1F7809147018217D9F020934701E091F9
:100810004401F09145018DE40995E0914401F09186
:10082000450180E00995E0914401F09145018091F6
:1008300047010995E0914401F091450180E0099557
:100840000895EF92FF920F931F937B018C01862FE7
:100850008170880F880F880FE0914401F091450165
:1008600080620995D801C70129E0B695A7959795AB
:1008700087952A95D1F7E0914401F09145010995BA
:1008800016950795F794E794E0914401F09145019E
:100890008E2D0995E0914401F091450180E0099584
:1008A0001F910F91FF90EF9008950F931F938C016C
:1008B000E0914401F091450180EA0995E0914401FD
:1008C000F0914501812F0995E0914401F091450196
:1008D000802F0995E0914401F091450180E0099550
:1008E0001F910F910895FF920F931F938C01F62E85
:1008F000E0914401F091450180EC0995E0914401BB
:10090000F0914501812F0995E0914401F091450155
:10091000802F0995E0914401F09145018F2D0995B3
:100920008EE1B9D080E01F910F91FF900895CF9292
:10093000DF92EF92FF920F931F936B017C01142FB4
:1009400057DFE0914401F09145018CE40995D7010E
:10095000C60149E0B695A795979587954A95D1F731
:10096000E0914401F09145010995D701C601B69582
:10097000A79597958795E0914401F09145010995D8
:10098000E0914401F091450180E009951F3FF1F0AD
:1009900016B50EE1C701B60154DF8F3F79F486B575
:1009A000811B8D33B8F316B50150A1F781E01F917B
:1009B0000F91FF90EF90DF90CF90089580E01F910E
:1009C0000F91FF90EF90DF90CF9008958FE063D06C
:1009D00080E01F910F91FF90EF90DF90CF900895EE
:1009E000CF92DF92EF92FF920F931F936B017C01E6
:1009F000042F122FFDDE8C2D8170880F880F880F39
:100A0000E0914401F091450180640995D701C60148
:100A100069E0B695A795979587956A95D1F7E09186
:100A20004401F09145010995D701C601B695A795F6
:100A300097958795E0914401F09145010995E091E2
:100A40004401F0914501802F09951123C1F00F3722
:100A5000F1F016B50EE1C701B601F3DE8F3779F478
:100A600086B5811B8D33B8F316B50150A1F781E02F
:100A70001F910F91FF90EF90DF90CF90089580E04D
:100A80001F910F91FF90EF90DF90CF9008958FE02E
:100A900002D080E0F5CF382F882349F020E096B5CA
:100AA00086B5891B8C33E0F32F5F2317C0F30895BD
:100AB000CF93DF931BB815B88BE087B9439883E0D9
:100AC00084B9419A89E002C0815041F0C0E0D0E091
:100AD0002197D1F3D7FD19C04098FACF14B8409AA6
:100AE000419883E085BDEBDA7894F0DA80910301D8
:100AF000882349F42196D7FD06C0419AE7DA809110
:100B000003018823B9F34198F0CF409AE1CFFF92D7
:100B10000F931F93CF93DF93F82E292F062F409129
:100B20000401413051F0443041F01FEF812FDF913B
:100B3000CF911F910F91FF900895002309F487C072
:100B40008F2D922F9C01E90110E053C08091150177
:100B500090911601892B09F058C060911101709194
:100B600012018091130190911401488121E038DF36
:100B70008091050190910601019790930601809361
:100B80000501892BD9F4109204018091170181FF8E
:100B90003AC08091180190E0209115013091160122
:100BA0008217930781F16091110170911201809178
:100BB0001301909114014881BADE11E08091110176
:100BC00090911201A0911301B09114010196A11D01
:100BD000B11D8093110190931201A0931301B09362
:100BE000140121969E012F19201708F09FCF4091E4
:100BF0000401413009F4AACF8091110190911201B2
:100C0000688171DEB5CF11E0D9CF6091110170918B
:100C100012018091130190911401488120E0E0DEDF
:100C200080911801815080931801882309F0A0CF8A
:100C30006091110170911201809113019091140142
:100C4000488175DE809115018093180191CF10E0E5
:100C50006DCF0F931F93CF93DF93082F162F4091E3
:100C60000401842F8250823038F01FEF812FDF91F2
:100C7000CF911F910F910895662399F1802F9C01C8
:100C8000E90120C080911101909112010EDE88834C
:100C90008091110190911201A0911301B091140162
:100CA0000196A11DB11D8093110190931201A09393
:100CB0001301B093140121969E01201B211778F493
:100CC000409104014230F1F66091110170911201DE
:100CD0008091130190911401B4DD8883D9CF18302D
:100CE00028F610920401812FDF91CF911F910F916F
:100CF0000895EF92FF921F93CF93DF937C01DC0165
:100D000011961C91113009F4E5C0123009F4F0C0BD
:100D1000133079F1143009F061C080910801882303
:100D200099F4F701938180E0228130E0822B932BAC
:100D3000AA2797FDA095BA2F8093110190931201D5
:100D4000A0931301B0931401D70117969C911797A4
:100D500080E016962C9130E0822B932B9093060125
:100D60008093050182E0809304018FEFC9E0D1E018
:100D70002BC0E0914401F0914501DC0112968C9169
:100D80000995C9E0D1E080930901E0914401F09117
:100D90004501D70113968C91099580930A01E09142
:100DA0004401F0914501D70114968C9109958093E7
:100DB0000B01E0914401F0914501D70115968C910A
:100DC000099580930C0184E0D0932801C0932701FA
:100DD000DF91CF911F91FF90EF900895173009F4A4
:100DE0004DC0153009F4CAC0163009F08AC0809190
:100DF0000801882399F4F701938180E0228130E093
:100E0000822B932BAA2797FDA095BA2F80931101CF
:100E100090931201A0931301B0931401D70114967B
:100E20008C91149715969C91292F2F702093170160
:100E3000492F50E0407F507042955295507F542783
:100E4000407F5427480F511D5093160140931501C0
:100E500020FF02C040931801F701978180E02681AE
:100E600030E0822B932B909306018093050181E063
:100E7000809304018FEFC9E0D1E0A6CF80910801F3
:100E8000882399F4F701938180E0228130E0822B5E
:100E9000932BAA2797FDA095BA2F809311019093C9
:100EA0001201A0931301B0931401D70117969C91DE
:100EB000179780E016962C9130E0822B932B90931D
:100EC00006018093050183E0809304018FEFC9E060
:100ED000D1E07ACF8091070176DB10920801109360
:100EE0000301439AE5DB409880E0C9E0D1E06CCF94
:100EF00007DC4398409A1092030180E0C9E0D1E0FA
:100F000063CF183049F0193009F44AC01A30E9F1BA
:100F100080E0C9E0D1E058CF809108018823B1F486
:100F2000D70113969C91139780E012962C9130E094
:100F3000822B932BAA2797FDA095BA2F809311019E
:100F400090931201A0931301B09314011092160113
:100F50001092150110921701F701978180E0268108
:100F600030E0822B932B909306018093050184E05F
:100F7000809304018FEFC9E0D1E026CFF0DBC9E018
:100F8000D1E08093090181E01FCFDC0112968C91A2
:100F900080930701C9E0D1E01092090181E014CFEC
:100FA00081E080930801F70182819381A481B5815A
:100FB0008093110190931201A0931301B093140137
:0C0FC00080E0C9E0D1E000CFF894FFCF42
:020FCC005AFFCA
:00000001FF
